:020000040800F2
:10000000682C062025030008E7FF0008B1C6000899
:1000100029FF000883120008F165010800000000B4
:100020000000000000000000000000005D49010821
:10003000AD1C000800000000C10C0008E5490108E3
:100040005F0300085F0300085F0300085F03000808
:100050005F0300085F0300085F0300085F030008F8
:100060005F0300085F0300085F0300085F030008E8
:100070005F0300085F0300085F0300085F030008D8
:100080005F0300085F0300085F0300085F030008C8
:100090005F0300085F0300085F0300085F030008B8
:1000A0005F0300085F0300085F0300085F030008A8
:1000B0005F0300085F0300085F0300085F03000898
:1000C0005F0300085F0300085F0300085F03000888
:1000D0005F030008A16501085F0300085F030008D3
:1000E0005F0300085F0300085F0300085F03000868
:1000F0005F0300085F0300085F0300085F03000858
:100100005F0300085F0300085F0300085F03000847
:100110005F0300085F0300085F0300085F03000837
:100120005F0300085F0300085F0300085F03000827
:100130005F0300085F0300085F0300085F03000817
:100140005F0300085F0300085F0300085F03000807
:100150005F0300085F0300085F0300085F030008F7
:100160005F0300085F0300085F0300085F030008E7
:100170005F0300085F0300085F0300080000000041
:100180005F0300085F0300085F0300085F030008C7
:100190005F0300085F0300085F0300085F030008B7
:1001A00049FC00085F0300085F0300085F030008C4
:1001B0005F0300085F0300085F0300085F03000897
:1001C0005F0300085F030008000000005F030008F1
:1001D0005F0300085F0300085F0300085F03000877
:1001E0005F0300085F0300085F0300085F03000867
:1001F0005F0300085F03000800F002F800F069F8F0
:100200000AA090E8000C82448344AAF10107DA4571
:1002100001D100F05EF8AFF2090EBAE80F0013F05A
:10022000010F18BFFB1A43F001031847604D0C0083
:10023000804D0C000A444FF0000C10F8013B13F005
:10024000070408BF10F8014B1D1108BF10F8015B2F
:10025000641E05D010F8016B641E01F8016BF9D122
:1002600013F0080F1EBF10F8014BAD1C0C1B09D179
:100270006D1E58BF01F801CBFAD505E014F8016BEB
:1002800001F8016B6D1EF9D59142D6D3704700007D
:100290000023002400250026103A28BF78C1FBD88F
:1002A000520728BF30C148BF0B607047692900F072
:1002B000D380642900F0D080732900F014840020DA
:1002C00070471FB529F084FE00F0B3F91FBD10B5CB
:1002D00010BD00F069FC1146FFF7F3FF29F062FC46
:1002E00000F087FC03B4FFF7F2FF03BC29F0ADFB7D
:1002F0000B49D1F800C04A685CF8043B1068184408
:1003000042F8040B8C4528BFA1F1DC0C8A4228BFBF
:10031000A1F1DC02C1F800C04A6020F00040704743
:10032000FC1F062011488047DFF84400016841F4B3
:1003300070010160BFF34F8FDFF83800016821F0D2
:1003400040410160BFF36F8F0B480047FEE7FEE7B7
:10035000FEE7FEE7FEE7FEE7FEE7FEE7FEE7FEE775
:1003600006480749074A084B70470000094A010838
:1003700088ED00E034EF00E0F90100086820062075
:10038000682C0620682206206822062072B6704774
:1003900062B67047EFF3108072B6704780F3108832
:1003A000704730BF704720BF7047B0FA80F0704789
:1003B00090FAA0F0B0FA80F0704790FAA0F0704781
:1003C000704700000FB4044910B503AA029800F06A
:1003D0008FFB10BC5DF814FB140002200FB41CB599
:1003E000074B06AA7B4469460090059800F051FB34
:1003F0000020694600F060FB1CBC5DF814FB0000A7
:10040000D106000070B50C460546012A05D02878B3
:10041000800600D5EA69002302E0012305E05B1CA9
:10042000934202D2E05C0028F9D1A869E618C01A0C
:10043000A861286A184428622846AFF3008004E0C7
:10044000D5E9012114F8010B9047B442F8D32846AE
:10045000AFF3008070BD00002DE9F0410646002496
:1004600010687529314616A510D0AFF3008000281A
:1004700002DA404213A507E031688A0701D512A5C8
:1004800002E0490704D511A5012401E0AFF3008083
:1004900000210A2206F1240709E0B0FBF2FCB0FBC0
:1004A000F2F302FB1C00303078541846491C002837
:1004B000F3D123462A463046BDE8F04100F08BBA1E
:1004C000000000002D0000002B00000020000000B4
:1004D0002DE9F05F894604464FF0000ADFF824B1A9
:1004E000FB44C0F820A02046E168884700287DD062
:1004F000252806D0D4E901219047206A401C2062BB
:10050000F1E700255F462046E16888472028064637
:1005100007DB312E05D2B81910F8200C08B10543BD
:10052000F1E7A80701D525F00405C4F81CA00027B1
:10053000C4F818A02A2E09D0304629F07FFA38B323
:1005400004EB8708303EC8F8186019E059F8041B1E
:10055000204604EB87029161E1688847012F064637
:1005600018D1E069002820DA25F020051DE0D8F830
:10057000180000EB800006EB40003038C8F8180087
:100580002046E1688847064629F058FA0028EED14F
:10059000012F0AD02E2E08D12046E16888477F1C03
:1005A0000646022F45F02005C4DBA069002803DAC7
:1005B000404245F00105A061E80701D025F0100593
:1005C000A6B1A6F14100192802D8203645F40065ED
:1005D0004A463146204625604D46FFF767FE60B12A
:1005E000012807D0ED1D25F0070000E007E000F12D
:1005F000080978E705F1040975E730467AE7206ACB
:10060000BDE8F09F2D3E0C000B4910B5A1F17C0216
:100610000A4CC2E93712372106E000EB104342F8DA
:100620002130074B00FB03400B1EA1F10101F4DC5C
:1006300010BD0120E8E700009C1F0620E119D666E6
:10064000CD0D010040EA010310B59B070FD1042A2C
:100650000DD310C808C9121F9C42F8D020BA19BA8D
:10066000884201D9012010BD4FF0FF3010BD1AB1F2
:10067000D30703D0521C07E0002010BD10F8013B47
:1006800011F8014B1B1B07D110F8013B11F8014B6E
:100690001B1B01D1921EF1D1184610BD40EA010387
:1006A000024630B59B0710D14FF0013400E008C27C
:1006B00008C91D1B9D4315EAC41FF8D013F0FF01A4
:1006C00002F8011B0DD01B0AF8E711F8013B002BC3
:1006D00002F8013B05D011F8013B002B02F8013B69
:1006E000F3D130BD10B5431C02E010F8011B71B10D
:1006F0008107FAD14FF0013202C88C1A8C4314EAF8
:10070000C211F9D0C01A0A0603D0C01E10BDC01A0B
:1007100010BD0A0401D0801E10BD0902FCD0401E8D
:1007200010BD421E12F8013F002BFBD111F8013B16
:10073000002B02F8013BF9D17047032A40F23080C8
:1007400010F0030C00F0158011F8013BBCF1020F12
:10075000624498BF11F801CB00F8013B38BF11F893
:10076000013BA2F1040298BF00F801CB38BF00F8AA
:10077000013B11F0030300F06780083AC0F00880E5
:1007800051F8043B083A51F804CBA0E80810F5E70B
:10079000121D5CBF51F8043B40F8043BAFF30080EE
:1007A000D20724BF11F8013B11F801CB48BF11F863
:1007B000012B24BF00F8013B00F801CB48BF00F833
:1007C000012B7047431A28BF9A427FF6B6AF032A1F
:1007D0001044114440F2268010F0030F1EBF11F8A0
:1007E000013D521E00F8013D10F0030F7FF4F6AFFB
:1007F00011F0030300F0A181083AC0F00B8051F81A
:10080000043D083A51F804CD40F8043D40F804CDC9
:10081000FFF7F3BF121D5CBF51F8043D40F8043DE3
:10082000AFF30080D20724BF11F8013D11F801CDCC
:1008300048BF11F8012C24BF00F8013D00F801CD9C
:1008400048BF00F8012C704710B5203AC0F00B806B
:10085000B1E81850203AA0E81850B1E81850A0E8C4
:100860001850BFF4F5AF5FEA027C24BFB1E818501E
:10087000A0E8185044BF18C918C0BDE810405FEA8E
:10088000827C24BF51F8043B40F8043B08BF70470A
:10089000D20728BF31F8023B48BF11F8012B28BF0F
:1008A00020F8023B48BF00F8012B704702F0FF031D
:1008B00043EA032242EA024200F002B84FF000028B
:1008C0000429C0F0128010F0030C00F01B80CCF162
:1008D000040CBCF1020F18BF00F8012BA8BF20F8D0
:1008E000022BA1EB0C0100F00DB85FEAC17C24BF24
:1008F00000F8012B00F8012B48BF00F8012B7047CE
:100900004FF0000200B5134694469646203922BFA8
:10091000A0E80C50A0E80C50B1F12001BFF4F7AFF3
:10092000090728BFA0E80C5048BF0CC05DF804EBD5
:10093000890028BF40F8042B08BF704748BF20F843
:10094000022B11F0804F18BF00F8012B70470000F8
:100950004FF0013C50F8042B51F8043B9A4215D15A
:10096000A2EB0C03934313EACC130BD150F8042BE6
:1009700051F8043B9A4209D1A2EB0C03934313EACA
:10098000CC13E7D04FF00000704700BFD01A01BA77
:10099000B1FA81F101F0180122FA01F0CB40C1F166
:1009A0002001DBB2C0B2C01A2CFA01F3D11A914374
:1009B00011EAC311E6D1704770477047704770471E
:1009C00010B500F0E5F8006810BD10B5044600F061
:1009D000DFF8046010BD2DE9F0470D4699469246B8
:1009E000044600F124080168880604D5E06921F076
:1009F0001001216000E00120A84201DD471B00E05A
:100A00000027A1697A1902EB0900081AA061207871
:100A1000C00602D42046AFF30080002608E0D4E9E7
:100A200001211AF806009047206A401C761C2062BB
:100A30004E45F4DB2078C0060AD52046AFF300808F
:100A400006E0D4E9012130209047206A401C206252
:100A5000381EA7F10107F4DC07E0D4E9012118F8FA
:100A600005009047206A401C2062281EA5F1010560
:100A7000F3DC2046AFF300802078000602D5022088
:100A8000BDE8F0870120FBE701694A1C0261087894
:100A9000704700B58FB0CDE90131002105910549BE
:100AA0007944CDE9031011466846FFF711FD0FB0F8
:100AB00000BD0000E5FFFFFF0A6802F8010B0A60B5
:100AC000704710B5436913B1AFF3008001E0FFF741
:100AD00099FC012010BD127800F124010A70002257
:100AE0004A700122EDE711684FF0FF32E9E700009C
:100AF000074B70B50D467B44FFF7CBFF04462846F5
:100B000000F04AF810B14FF0FF3070BD204670BDC4
:100B10006B900200431A28BF9A427FF695AE1044AC
:100B200010F0030F11441EBF11F8013D521E00F8D2
:100B3000013D10F0030F7FF4F6AF103AC0F00A80C9
:100B400010B531E91850103A20E91850BFF4F9AF48
:100B5000BDE81040530724BF31E9081020E9081010
:100B600044BF51F8043D40F8043D12F0030F08BFA4
:100B70007047D20728BF31F8023D48BF11F8012C59
:100B800028BF20F8023D48BF00F8012C7047000044
:100B90000048704704200620007B00F0800070476A
:100BA00000487047042006207546FFF7F9FFAE465F
:100BB00005006946534620F00700854618B020B569
:100BC000FFF7CEFBBDE820404FF000064FF00007D6
:100BD0004FF000084FF0000B21F00701AC46ACE8E5
:100BE000C009ACE8C009ACE8C009ACE8C0098D4652
:100BF000704710B50446AFF300802046BDE81040B2
:100C0000FFF770BBEFF3098141B1F1EE101A40F824
:100C1000041D20ED200A3E490A6810607047B0ECC0
:100C2000200A02C8E1EE101A3A490A6810607047BB
:100C300072B64EF62250CEF2000040F2FF01C0F232
:100C4000000101704FF0000080F3098810F0F8FBFC
:100C500040F26010C2F20200016881F3088840F29D
:100C6000FA00C2F2020040F2FB01C2F202010A786D
:100C7000027040F25815C2F2020540F25C11C2F255
:100C800002010A682A60106880F30988EFF3148073
:100C900040F0020080F31488BFF36F8FBDE8F00FBF
:100CA0000FBCBDE8005006BC62B608471A484FF0BA
:100CB00080510160704718484FF0805101607047C3
:100CC00072B6EFF3098020E9F00F40F25815C2F236
:100CD00002052E683060744610F0B2FB40F2FA0054
:100CE000C2F2020040F2FB01C2F202010A78027075
:100CF00040F25C11C2F202010A682A6044F0F40E6C
:100D00001068B0E8F00F80F3098862B67047000001
:100D1000580102205C01022004ED00E02DE9F041C1
:100D200002460E4600200024971908E00502381BF1
:100D3000401E80B200F007F82844641CE4B2B442BC
:100D4000F4D3BDE8F08110B504460BF073FF200A20
:100D5000A02101EB4000C0B20BF032FF0BF0BAFF54
:100D6000E0B20BF02DFF0BF0B5FF0BF063FFA120FD
:100D70000BF026FF0BF0AEFF00200BF0EDFE04465B
:100D80000BF080FF204610BD2DE9F04106460D46D0
:100D90001746002409E0E00025FA00F0C1B230193E
:100DA00080B200F006F8641CE4B2BC42F3D3BDE8A4
:100DB000F08170B504460D460BF03CFF200AA021DF
:100DC00001EB4000C0B20BF0FBFE0BF083FFE0B282
:100DD0000BF0F6FE0BF07EFF28460BF0F1FE0BF059
:100DE00079FF0BF04FFFBDE870400A2028F054BE99
:100DF000002800DC404270470AF0EABC38B545687C
:100E000004460146284615F013FC00282BD0206824
:100E1000304A11280DD006DC0B2825D00E2833D0FF
:100E20000F2852D112E0282849D0B0F5107F4CD1BC
:100E300008E09268002A16D02146284601B0BDE895
:100E400030401047214628465268F7E7284604F00C
:100E500081FC0090406E0468684604F0E5FC002CBC
:100E600001D02846A04738BD284604F073FC009006
:100E7000683004F0BBFB009803216C3004F0C4FB25
:100E8000684604F0D1FC20E0E168486809680D2953
:100E900002D0202913D105E0002810DD284622F0D9
:100EA000C2FF06E0002804DD2846BDE8384022F0F5
:100EB000BABF2846BDE83840022122F0CABFE06828
:100EC00018B90021284600F099F92046BDE83840BD
:100ED00015F090BE600A0220F0B5044685B0806926
:100EE000B4F90850668A0027CDE90265CDE90017FC
:100EF0000490B4F90C00B4F91060C118B4F90A00F8
:100F0000B4F90E50104433462A4600F007F805465F
:100F1000616800F089F905B02846F0BD2DE9F04F71
:100F200085B01F46DDE911B4DDE90E5690468946CD
:100F3000824606F0DDF816484C34CDE90204CDE9CE
:100F400000563B4642464946504615F09BFD04007C
:100F500018D004F0FFFB10225946049015F0BCFC99
:100F6000049830220B493430FFF76EFC094D049988
:100F70000C3D2868486604A804F056FC28684168BF
:100F80002046884707F054FF05B02046BDE8F08FA3
:100F9000FD0D00086C0A0220F0B5044680688B49FC
:100FA00089B051F82050606800287DD0052804D011
:100FB00006287AD0122879D1AEE0E86900284FD00F
:100FC00095E80E008DE80F0004F110010FC908F03C
:100FD000FFFB002655F8260007F0B3FAA169E8697F
:100FE0000A1A216901446069304405F0D9FCA169FD
:100FF000E8690A1A21690144E069801B05F0D0FC08
:10100000E169E8690A1A616901442069304405F020
:10101000CFFDE169E8690A1A61690144A069801B92
:1010200005F0C6FD761C022ED4DBA86807F089FA0D
:10103000E069E9696669431A206942183144801CF5
:10104000521E05F03FFEE169E869A2690B1A616969
:101050000144101A401C921E05F034FEEE6913E0A4
:101060005FF0000655F8260007F06BFAE069831B75
:10107000A069821B606981192069304405F006FD72
:10108000761C022EEEDB0226D5E90301CDE9000134
:101090006169E06908444310A069891C821B2069CA
:1010A000304405F017FC02E089E012E08AE0D5E95F
:1010B0000501CDE90001E36960690121184401EBF4
:1010C0006001A0699B1E821B2069304405F002FC70
:1010D00078E0206804F03EFB0490206817F0A8FA3E
:1010E00040B1A06808B1002008E00498006F28B162
:1010F000012003E00498406F00B10220049901EB45
:101100008000C56E04A804F08FFB00231A46284611
:10111000216805F04BF855E0206804F01BFB0490B3
:10112000866EEEB3B0F95C70A168D1B3032942D0EA
:101130005FF0000100EB8101406D0C6C07F030FAAC
:10114000204607F0FEF905A805F0E8FEBDF81410EA
:10115000A88B0144ADF81410BDF81810081AADF8AA
:101160001800BDF81600801CADF81600BDF81A0076
:10117000801EADF81A000498B0F96020B0F95E1036
:1011800005A806F09DFE04A804F04EFB022007F01F
:10119000A9FA304604F0DEFA3A4605A9079001E0C4
:1011A0000BE006E005F084F90DF11C0004F03CFBB7
:1011B00008E00121BEE70221BCE704A8F6E72068A9
:1011C00016F06AFE09B00020F0BD0000E4300C0803
:1011D000044A0349116004494A6A4862104670474C
:1011E0009C0A0220600A02206C0A022000294FF0AB
:1011F000100101D015F0B0BA15F0FBB94FF48072B0
:101200000029114601D015F0A7BA15F0F2B9000077
:101210000348024941600349816070472B58020826
:10122000600A0220195202082DE9FF410E4605000E
:101230004FF0010421D005F05BFF284604F08AFA44
:101240000190876E01A8009704F0EEFA31466846D7
:1012500008F06AFE78B100980024B84208D0284609
:1012600004F078FA01900099816601A804F0DCFA94
:10127000284616F059FA07F0DBFD04B02046BDE819
:10128000F081FEE77CB5214C0546216831F8220F3C
:101290004A8D104408804888CA8D104448802846EA
:1012A00005F016FE2168498CADF800104618284656
:1012B00008F08AFC3044401EADF8040005F064FEDE
:1012C0002168898CADF802100844401EADF8060074
:1012D000684617F039F804E0284601F041FB16F0A3
:1012E000ADFF0028F8D10A2D04D0BDF80400216814
:1012F000401C4884206830F8221F428D891A0180E2
:101300004188C28D891A41807CBD0000EC08022012
:1013100010B500F0A3F800F005F8BDE8104000F0AB
:101320009BB800002DE9F041104E002737807780F0
:10133000B760F7607761B76137610025FFF72AF87A
:1013400080460024776100F049F800F059F8706990
:101350000544641CA4B2002CF4D035617761B761F8
:101360004046BDE8F041FFF719B8000088000220B0
:1013700003490969884201D9401A70470020704723
:101380008800022010B5FFF705F804494C69FFF703
:1013900005F82046BDE81040FFF7EABF88000220AC
:1013A00010B5FFF7EFFF0446FEF7F4FF034A0021F4
:1013B0005161FEF7F3FF204610BD000088000220B7
:1013C00010B5FEF7E7FF04498C69FEF7E7FF2046FA
:1013D000BDE81040FFF7CCBF8800022010B5074CD5
:1013E0002088401C20806088002802D100F05CF832
:1013F000A0606088401C608010BD00008800022052
:1014000010B50A4C6088401E80B2608000280CD164
:1014100000F04AF8E060A168401A6169814200D298
:101420006061A169814200D2A06110BD88000220E4
:1014300010B5FEF7AFFF0446FFF7D0FF05481021B7
:101440000EF0AEFDFFF7DCFF2046BDE81040FEF7D2
:10145000A5BF0000E0670520FFF7EABF02490020B2
:10146000486000F009B80000880002200149486087
:10147000704700008800022010B5FFF7BDFC084946
:101480000A6842F080720A60064900224A600A68CF
:1014900042F001020A60BDE81040FFF7E7BF00001C
:1014A000FCED00E0001000E00148406870470000DB
:1014B000001000E0022028F023BB000010B5124C01
:1014C00000221021204608F0D2FF206820F440605E
:1014D0002060206840F480602060FFF7EBFF00226E
:1014E0002046202108F0C3FFFFF7E4FF0122204639
:1014F000102108F0BCFFFFF7DDFF00222046BDE809
:101500001040102108F0B3BF001C024000B587B0A6
:101510000E48016841F080010160016801F080011E
:101520000191016841F480710160006800F48070ED
:101530000190302002900120039004900320059038
:1015400002A9034808F098FE07B000BD30380240F9
:10155000001C024010B5124C00221021204608F059
:1015600086FF206820F440602060206840F480609E
:101570002060FFF79FFF01222046202108F077FF1F
:10158000FFF798FF01222046102108F070FFFFF7B7
:1015900091FF00222046BDE81040102108F067BFEF
:1015A000001C02402DE9F04107460024164E306829
:1015B00020F440603060306830601E2028F0A0FACF
:1015C000002530460022102108F051FFFFF772FF7E
:1015D00001223046102108F04AFF6006040E304612
:1015E000202108F039FF08B1641CE4B26D1CEDB293
:1015F000082DE6D327B1FFF761FF2046BDE8F08153
:10160000FFF7A8FFF9E70000001C024070B505468F
:10161000194E3046316821F440613160016841F46F
:10162000806101600022102108F021FFFFF742FFD6
:101630000024280605D501223046202108F017FF96
:1016400004E000223046202108F011FF6806050E54
:1016500030460122102108F00AFFFFF72BFF00227D
:101660003046102108F003FFFFF724FF641CE4B2AA
:10167000082CDED370BD0000001C024010B5124CD7
:10168000206820F440602060206840F48060206082
:1016900001222046202108F0EAFE012220461021E6
:1016A00008F0E5FE1E2028F02BFA0022204620211B
:1016B00008F0DDFEFFF7FEFE00222046BDE81040E8
:1016C000102108F0D4BE0000001C024010B50F4CE1
:1016D000206820F440602060206840F48060206032
:1016E00001222046102108F0C2FE1E2028F008FA30
:1016F00000222046202108F0BAFEFFF7DBFE01227F
:101700002046BDE81040202108F0B1BE001C024078
:1017100070B50024154D286820F4406028602868C2
:10172000286001222021284608F0A1FE0122284637
:10173000102108F09CFEFFF7BDFE09E0641CE4B236
:10174000FA2C03D9FFF7C2FF012070BDFFF7B2FEEC
:101750002021284608F080FE0028EFD100222846EC
:10176000102108F084FE002070BD0000001C024023
:10177000FEB505460F461646284608F011FDDFF86F
:101780002CC0C5EBC5045CF8243000FB073100FB1E
:1017900006320CEB840400202369CDE9003002906E
:1017A0002846E36800F050F9A660FEBD9C84052041
:1017B0002DE9FE4F05460F4690469946DDE90D6B33
:1017C000DDF830A0284608F0EBFC114BC5EBC50155
:1017D00003EB810453F821206168E36800FB0121D9
:1017E00008FB037C67690CFB0711646800FB04209D
:1017F0000AFB039202FB0702981B33460024029463
:10180000CDE900B0284600F01FF9BDE8FE8F0000CA
:101810009C8405202DE9FC4780460D4616461C4653
:10182000DDE90A7905F096FB012821D0641B641CD0
:10183000BF1B7F1C404608F0B3FC02461649C8EBAC
:10184000C80051F8203001EB8001886802FB0032AB
:10185000C868496906FB005303FB0121001B3B4696
:10186000CDE900092246404600F072F9BDE8FC8748
:101870000022404619210CF027FD3B462246314606
:1018800028460BF04BFF02B04046044A1921BDE840
:10189000F0470CF019BD00009C84052015180008C5
:1018A000F0B5BFF34F8FBFF36F8F19490020086069
:1018B000184E316841F400313160BFF34F8FBFF3F0
:1018C0006F8F144970310860BFF34F8F081F006895
:1018D000C0F34E310E4A43F6FF771032C0F3C9050C
:1018E000284607EA411343EA80741460401E441CF2
:1018F000F9D1491E481CF3D1BFF34F8F306840F433
:1019000080303060BFF34F8FBFF36F8FF0BD0000AA
:1019100050EF00E014ED00E038B50324009400F02F
:101920005FF838BD38B50424009400F059F838BD8C
:1019300038B50224009400F053F838BD38B50024BF
:10194000009400F04DF838BD38B50024009400F044
:1019500047F838BD70B50C4615461E460A49324652
:101960000BF008FA0949324620460BF003FA084A00
:1019700033460649044800F00DF832462946BDE8D2
:10198000704003480BF0F6B9B8B60520B8E805205A
:10199000B884052070B50024104D0F4E2E60E8600D
:1019A0006961EA6300202861A8612864E8616862CF
:1019B0006863012000EB03406864286840F0010080
:1019C00028604FF4001102E0641C8C4202D22868A7
:1019D000C007F9D170BD00000002020000B0024053
:1019E000F8B50D461446069E224605490BF0C9F986
:1019F0000348002233462946009400F003F8F8BD5E
:101A0000B8840520F0B5059E00240E4D4FF48137B3
:101A10002F60E860E963002028612864EA616B6355
:101A2000012000EB06406864286840F0010028604F
:101A30004FF4001102E0641C8C4202D22868C007F7
:101A4000F9D1F0BD00B002402DE9F05F0E46174617
:101A50009846DDE90BABDDF8289000240CF09EF8E9
:101A60000E4D4FF400712960EE60EF63C5F810A0D1
:101A7000C5F840B0E86168F31F49C5F8449028688C
:101A800040F001002860090302E0641C8C4202D28D
:101A90002868C007F9D1BDE8F09F000000B00240FF
:101AA0002DE9F05F884616469946DDE90AAB0C9FA2
:101AB00000240CF073F8124D10492960C5F80C8011
:101AC000EE636E61C5F810B02F64AF610021E9616B
:101AD0006862686369F31F4AC5F844A0286840F04B
:101AE000010028604FF4001102E0641C8C4202D215
:101AF0002868C007F9D1BDE8F09F0000000202008D
:101B000000B002402DE9F041DDE9077C069E00248B
:101B10000E4D4FF48138C5F80080E860E9632A6112
:101B20002B640520E8616E634CEA0740686428680E
:101B300040F0010028604FF4001102E0641C8C4268
:101B400002D22868C007F9D1BDE8F08100B0024098
:101B50002DE9F0470F4690461E46DDE9089A00241D
:101B60000CF01CF80E4D0D492960C5F838A0EF6344
:101B7000C5F84090686368F31F466E64286840F0BB
:101B8000010028604FF4001102E0641C8C4202D274
:101B90002868C007F9D1BDE8F08700000002030003
:101BA00000B0024038B514460D46049A002305499A
:101BB0000094FFF727FF22462946BDE83840014838
:101BC0000BF0DFB8B8840520064AD062491EC8B2BF
:101BD000012101EB0020D061D06940F02000D061EC
:101BE0007047000000B002401EB50023FF24B4EB94
:101BF000116F2CD080F07F40029081F07F400190E7
:101C000014481349016002A9C16001A94161C0F8EB
:101C10003CD04FF4803141EA0261C161C2F1FF0161
:101C200009064162002141634FF0011141640168DE
:101C300041F0010101604FF4001202E05B1C93428D
:101C400002D20168C907F9D1009880F07F401EBD1B
:101C50000002020000B00240F0B5059E0024124DC3
:101C6000104F2F60E8606961EA634FF4803040EA0A
:101C70000360E861C3F1FF0000066862002068634A
:101C8000012000EB06406864286840F001002860ED
:101C90004FF4001102E0641C8C4202D22868C00795
:101CA000F9D1F0BD0002020000B002407047000010
:101CB0002DE9FC5F15460746DFF890802844019027
:101CC000D8F800201C460E46526E214489465268C0
:101CD0009047D8F80020781B4946526E82465268D9
:101CE0009047711938190090D8F800208946526E33
:101CF00052689047D8F80020711B8B46526E0098AE
:101D000052689047002C1ED0D8F80010361B45466C
:101D1000496E01984A68314690472A6831465046D4
:101D2000526E5268904728683C1B4946406E426894
:101D3000204690472A6859462046526E526802B0A3
:101D4000BDE8F05F1047BDE8FC9F0000EC080220F2
:101D500070B5B3F5804F05D06FF0704140F8221098
:101D6000002070BD50F82230084C2340D1E90045D6
:101D70008E8944EA05148D6889692D0245EA064575
:101D80002C430C431C4340F82240E9E70000F0CF0D
:101D900030B5D1E901230D681A43D1E90334234357
:101DA0001A434B691A438B691A43D1E90734496ACC
:101DB000012D08D005686FF30E051A4322430A432C
:101DC0002A4302600BE0056825F4F84523432943C4
:101DD0000B4341686FF30E010A4303604260002029
:101DE00030BD426942EA4101416100207047F8B5C7
:101DF00006461446D1E9000210438A68C968521E9B
:101E0000520142EA4121084300900098306108F0F5
:101E100035FB054609E0601C07D024B108F02EFB15
:101E2000401BA04201D90320F8BDB0698006F2D45E
:101E30000020F8BDF0B54B680C685B1E4D69641E50
:101E400044EA03148B686D1E5B1E44EA0326CB68CC
:101E50000C6989695B1E641E491E012A0DD08268C7
:101E600002F0704246EA033343EA044343EA05536F
:101E700043EA01611143816010E08268084F3A40F3
:101E80001B0343EA05531343C26802F0704246EA5B
:101E9000044444EA016111438360C1600020F0BD45
:101EA000FF0F0FFF2DE9F047044640688EB0002772
:101EB000804603F04FFC0090B0F87CA0D0F868900A
:101EC000D0F88060D0F88850C06D00B107686846CF
:101ED00003F0AAFC05E0696820468847002843D142
:101EE0002D68002DF7D12068172853D00CDC0F285F
:101EF0003DD004DC0B2877D00D2825D18BE01128AC
:101F000010D0142820D13BE0262846D004DC1E281F
:101F100051D0202818D18AE02A2816D0B0F5107F99
:101F200012D128E04046E56803F014FC0290697A7B
:101F300039B9297A012904D130F87C1F41F4807124
:101F4000018002A803F070FC75E0404603F002FC3B
:101F50000090E16811B1C0F8841002E0D0F884006C
:101F6000E060684603F060FC0EB0BDE8F087D7B3D0
:101F70004046B8475FE02146404623F0BFF9F3E70B
:101F800005A9404600F0A1FBE068069901600799A9
:101F90004160E9E7C4F80C90E6E7E0680228E3D185
:101FA000CDF83080E0680D9027200A900AA9A0683B
:101FB00016F04EFDD8E7E068012804D00021404625
:101FC00000F0C8FAD0E7304615F029FC68B1304679
:101FD00015F0DCFE304615F0D3FA98B101213046F9
:101FE00014F0BAFB0EE026E02FE0484615F022FF81
:101FF0000646404603F0AEFB0090C0F8806068469D
:1020000003F012FC0121404600F0A4FA002EABD1EF
:102010000020E060A8E75FEA0A700CD4E068C068BE
:1020200048B1007A38B1404615F0B0FE03E02146D1
:10203000404621F02BFF2146404614F0F9FA0028D3
:1020400092D0204614F0D6FD8EE7404603F082FB86
:102050000090703003F0CAFA684673E7F0B587B0B5
:10206000B0F908400DF10C0C0C9E876945688CE8AE
:10207000F000448A0025CDE900150294B0F90C1057
:10208000B0F91050B0F90E40B0F90A0019441044EC
:102090002B46224600F002F807B0F0BD2DE9F04FC4
:1020A0008BB09846DDE9155691468A468346149FC3
:1020B0001A9C05F01DF83348603445F48055CDE98D
:1020C0000204CDE9007543464A465146584614F08D
:1020D000D9FC04004FD003F03DFB30220490179947
:1020E00014F0FAFB0498282227493430FEF7ACFBA1
:1020F00004981999244F4166A0F87C600026C0F826
:102100008060C666083FC0F888607968C16504A829
:1021100003F08AFB05A9204600F0D7FA1B4841F2DC
:10212000827103960094CDE90110BDF91E00BDF93E
:102130001A10BDF91C20431ABDF918005B1C121AB5
:10214000521C14F09FFC0646786841682046884778
:10215000204603F0FFFA0490866604A803F064FBAF
:1021600042F20400054202D1204614F0F3FD20465D
:10217000189900F053FA06F05BFE0BB02046BDE85C
:10218000F08F0000A51E0008300B022083280008F5
:102190002DE9F041044694B0006800F0B7F908B1A9
:1021A000D94D01E0D84D2C35606815281ED00CDCC7
:1021B0000B281FD004DC00287ED005287DD12FE11C
:1021C0000E287BD01228F9D141E1162806D0172815
:1021D00008D0182808D01C28F0D109E0E86914B00C
:1021E000BDE8F081286AFAE7686AF8E7A86AF6E7C6
:1021F0006869F4E720680B901C200C90206803F0BD
:10220000A9FA0390016D0BA88847064603A803F0BE
:102210000BFB022E0FDB95E807008DE80700D4E9E1
:1022200004023346A16907F099FA20698719A06969
:10223000A0EB06082CE0286806F083F92169E8691C
:102240000A18521E606904F0ABFBA269E869111A12
:10225000491C606904F0A4FBD4E904077F1C3946DB
:1022600004F0EEFB3946A06904F0EAFB686806F06A
:1022700068F920693946401C04F0E2FBA069394640
:10228000401E04F0DDFBA0692769A0F10208BF1C15
:10229000286806F056F942463946606904F080FB2A
:1022A000686806F04EF9606942463946401C04F001
:1022B00077FB686A022802E015E1B0E000E10BDD7F
:1022C000A86806F03EF961696A6A881C8B180146A5
:1022D000424638465B1E27E0296AB14226DD606926
:1022E000022E074600F1020801DB374401E007F146
:1022F0000207206901DB304401E000F1020022699D
:102300003B460A444146A2F1010204F0DBFC022EE6
:1023100002DBA069821B01E0A269921EA069E96943
:102320003B46401A4146401C04F0CCFC022E02DB26
:102330006069064401E06669B61CE76928687F1E8B
:1023400006F0FFF83A463146206904F031FC3A467F
:102350003146A06904F02CFCE7696868BF1E06F0EE
:10236000F0F820693A463146401C04F021FCA0698F
:102370003A463146401E04F01BFCE869022802DCA4
:10238000286A022823DDA86A022802DDE1690F1A03
:1023900001E0E769BF1EA86806F0D3F8E9690229E1
:1023A00009DD20693B46421800F1020C31466046C7
:1023B000521E04F087FC286A022808DDA269E86939
:1023C0003B46101A3146401C921E04F07BFC2868E4
:1023D00006F0B7F8D4E90620216904F0E1FA68684C
:1023E00006F0AFF8D4E906202169401E491C521EB0
:1023F00004F0D6FAA86A022811DDA1692669E46909
:10240000A1F10208271AA41EB61C7F1CA86806F0BA
:1024100098F8234642463946304604F053FC71E0B2
:10242000208A00B2ADF81400A18A09B2ADF81610E6
:10243000228B12B2ADF81820A38B1BB2ADF81A3064
:102440002C69ED68CDE9005404F044FA5AE0208A82
:10245000298B0844ADF81400A08AADF81600208B33
:10246000298B401AADF81800A08BADF81A0020682F
:1024700003F070F90390006FF0B1022006F032F91A
:10248000039890F87C10C1F3C00100EB8100006C50
:1024900006F057F80398406B06F082F80398006F37
:1024A00003F058F903990990B1F95A2005A903F0EE
:1024B000FFFF09A803F0B8F903A803F0B5F921E07C
:1024C000208AADF81400A08AADF81600208BADF874
:1024D0001800A08BADF81A00A86806F032F805A81D
:1024E00004F01CFC0EE0206803F034F9039030F88F
:1024F0005A1F41F00C01018003A803F095F92068F0
:1025000015F0CAFC00206AE66C0B022038B5050005
:102510004FF000040FD004F0EBFD284603F01AF949
:10252000009090F87C00000700D50124684603F075
:102530007BF906F07DFC204638BD0000022905D25B
:10254000034A52F821102C22FEF77EB97047000092
:10255000F4300C0870B50D46040009D004F0C8FD35
:102560002946204624F096F8BDE8704006F060BC8D
:1025700070BD0000022803D2024A02EB80004160D5
:1025800070470000300B02200149086070470000CE
:10259000300B0220074A0649054B1160064A083BEA
:1025A000D16958601B68C2E90630084670470000D0
:1025B000600B02202C0B0220300B0220024AB2F9E1
:1025C0002610D08408467047300B022070B50D46A7
:1025D0000146022D1ED2104C2C2254F82500FEF785
:1025E00033F954F825100220CA69022A00DAC861BA
:1025F00054F825100A6A022A00DA086254F82510F5
:102600004A6A022A00DA486254F825108A6A022AC5
:1026100000DA886270BD0000F4300C087CB50D460D
:1026200004001DD004F064FD204603F093F80090F0
:10263000006F0190684603F0F7F8294601A807F0FB
:1026400073FC58B1204603F085F8009001990167AA
:10265000684603F0E9F8204615F066F806F0E8FB56
:102660007CBD38B50C46050013D004F041FD28466A
:1026700003F070F80090B0F95A10A14204D0A0F80D
:102680005A40284615F050F8684603F0CDF806F099
:10269000CFFB38BD38B50C46050015D004F028FD39
:1026A000284603F057F80022CDF8000000EB820125
:1026B000521C0C64022AF9D3684603F0B5F8284688
:1026C00015F032F806F0B4FB38BD2DE9F34F85B0B4
:1026D00000270C46B846059803F03CF80090C06D02
:1026E0000121856805982A68904782462A68032157
:1026F0000598904704902A68022105989047039016
:102700002A680021059890470646009815F00DFEAE
:102710008346009815F010FE8146009890F832101C
:10272000890601D5B0F9588000F036F805460098C2
:10273000C06E10B114F040FD074625806780A4F8F4
:1027400004A0049AABEB020006EB0802401E2A44E8
:1027500020813A44E280039BA9EB0302521E62816E
:10276000A4F80CA020827019E681401E60826846A1
:1027700003F05AF8B4F90C000190B4F9100002907B
:1027800002AA01A9059800F039F80198A0810298E1
:10279000208207B0BDE8F08F10B50146002091F807
:1027A0003220920607D5B1F95400002803D1486BB6
:1027B00004F05BFC801C10BD70B58AB00C46054669
:1027C00002F0C8FF0990C06D866809A803F02CF8D4
:1027D000009534B1012C06D0022C0BD0032C04D16F
:1027E0000AE0182000E016200190716868468847CA
:1027F0000AB070BD1520F7E71720F5E72DE9FC4179
:1028000017468846044602F0A5FF0090C16D056892
:1028100068468E6803F008F8326800212046904729
:102820000646204614F06DFB27E000BF02F092FF41
:102830000190B0F900102AB2B0F90430891A9A1A3E
:10284000B0F90230A3EB2543B34210D190F8280031
:10285000000605D53868884209DB491E396006E064
:10286000D8F80000904202DC521CC8F8002001A8F1
:1028700002F0DAFF204614F0E9FB0400D6D1BDE8EF
:10288000FC812DE9F0430446406889B0054614F008
:10289000FBFB814602F05EFF0290D0F84880D0F842
:1028A0008070466E02A802F0BFFF2068172853D040
:1028B00008DC0E283AD00F2811D014284CD0152847
:1028C0003DD149E01E281ED01F282AD0222840D002
:1028D000312834D10020E06009B0BDE8F0836FF00A
:1028E00070414046884503D00BF01AFC03F0DCFA37
:1028F000002EF1D0D4E902122068CDE90405CDE91B
:10290000061204A81FE0E0680028E5D02FB1AF420E
:1029100003D0384615F03AFADEE7284615F08AFA71
:10292000DAE72146484613F083FED5E7E0684168C0
:10293000002904DD00680928EFD00A2805D05EB11F
:102940002046C4F80490B047C6E7284615F081FA3F
:10295000C2E7C4F80C80BFE7204614F04BF9BBE790
:1029600010B504460A2812D00D2C14D004F0C0FB78
:1029700009480068C069016820468847074801681F
:1029800009B120468847BDE8104006F051BABDE8BD
:10299000104003F0B3BC10BDEC080220180902205F
:1029A0002DE9F0430446C56887B09046894600206B
:1029B00005F0EAFD064625B1287910B146F002007F
:1029C00001E026F0020005F0DFFD2069012558B185
:1029D000D4E902128DE826000395638822880468F2
:1029E00041464846A0471EE0124F134B2146386827
:1029F0001B68427CE068984730B9E088012801D024
:102A0000002001E03868806BA288E388A168009507
:102A1000CDE90410CDE90232019563882288414650
:102A200048460AF017FB07B03046BDE8F04305F012
:102A3000ABBD0000EC080220E40802202DE9F047BD
:102A40008146884640F2C32050434FF47A7190FB90
:102A5000F1F502FB02F002EBD27100EB61061746C2
:102A60000023414648466D1CFFF722F9012413E07C
:102A700004FB04F007FB0700B04206DD3B4622469C
:102A800041464846FFF714F97F1E3B462246414621
:102A90004846FFF70DF9641CAC42E9DDBDE8F0875C
:102AA0001CB50024019401AC009400F0E7F81CBDB3
:102AB0002DE9FF4F83B0814606988A46A0EB0A08AD
:102AC000109E00200090A2EB09043568934654EA5A
:102AD000080018D02046FEF78BF907464046FEF75F
:102AE00087F987420BDA2046444680464846D1465D
:102AF00082465846DDF818B0069001200090002C60
:102B000007DD204606E007B04846BDE8F04F00F07C
:102B10003BB96042A0420AD04846D9466442C8F157
:102B2000000883464FF0FF37DDF818A000E00127CA
:102B30005148B8F1000F11D004EBD4714FEA610B8A
:102B400001DACBF1000B4C480068807E88B3002F7F
:102B500002DA30682044306000257BE000990029CB
:102B6000016821D0897E11B10027804615E007B0A9
:102B70005A4649465046BDE8F04F0AF0C1BC2846C7
:102B80006D1C24F013F938B9D8F8000009EB0701DF
:102B9000406E4268504690477F1CA742EFDD6D1E95
:102BA000356007B0BDE8F08F8A7E1AB100278046F5
:102BB00017E019E0486E5A465146036807B0484688
:102BC000BDE8F04F184728466D1C24F0EFF838B9DF
:102BD000D8F8001009EB0700496E4A685146904743
:102BE0007F1CA742EFDDDAE700250FE008FB05B008
:102BF00090FBF4F101EB0A00009951B11E4A09EB78
:102C000005011268526E526890476D1CA542EDDDB9
:102C1000C7E7194909EB05030968496E4A68014687
:102C20001846F1E708FB05B090FBF4F101EB0A0050
:102C3000019030683844306024F0B8F848B9009802
:102C400090B10D4809EB05010068406E426801989B
:102C500090476D1CA542E5DD3068002F01DA204465
:102C60003060C01B30609CE7034909EB0500096830
:102C7000496E4A680199EBE7EC0802202DE9FF470D
:102C80000F4640491646804609680C981D460A7E44
:102C9000012A1CD0A8EB0600791B50EA01031CD0C6
:102CA000A2F1010926F04CFA00F58060824607F097
:102CB00046FA00FB09F4504607F046FA00FB09F11A
:102CC000002C0CDAC4F50070801240420AE000903B
:102CD000324639464046FFF7EBFEBDE8FF8704F574
:102CE0000074A012002904DAC1F5007189124C4267
:102CF00002E001F500718C12002804DD411C01EB9B
:102D0000D171491003E000EBD0714910401E00EB77
:102D1000D0704210002C04DD601C00EBD07040101D
:102D200003E004EBD4704010641E04EBD47308EB92
:102D30000104ADF800403C18ADF80240A8EB0204D5
:102D40005B10B21AADF80440ADF808203144FC1A0B
:102D5000EA1AADF80C102844ADF80A20ADF80E00C0
:102D60000023ADF806401A460421684600F08CF8AE
:102D7000394640461BF0F2FE294630461BF0EEFE77
:102D8000ABE70000EC080220064A13681A7E012A0D
:102D900005D0521E02EBD272521000F005B85A6EE6
:102DA00052681047EC0802202DE9F05F064688467D
:102DB00040F2C32002FB00F14FF47A7091FBF0F770
:102DC00002FB02F102EBD27001EB600B1446B1186A
:102DD000234A301B7F1C1268526E13680A46414614
:102DE0009847012538E000BF05FB05F004FB04010E
:102DF00059451CDDBC4219DD194B06EB050AA6EB53
:102E000005091B68AAF1010208EB04015B6E09F1D8
:102E100001001B689847124BAAF10102A8EB0401BC
:102E20001B6809F101005B6E1B689847641E0C4B20
:102E30003219301B1B68924608EB05015B6E814618
:102E40001B689847064B5246A8EB05011B6848468D
:102E50005B6E1B6898476D1CBD42C5DDBDE8F09FE9
:102E6000EC08022070B514460E4605460119001BF9
:102E700002F008FB2246314628461DF067FABDE8FD
:102E8000704002F019BA00002DE9FF4F43F6FF74BD
:102E90000F46664283B09B46814600210BE000BF8F
:102EA00009EB8100B0F90200A04200DA0446B0420A
:102EB00000DD0646491CB942F2DB674800684069FC
:102EC00000280DD0B0F906101A46A1EB0B01B14253
:102ED00000DA0E46B0F90200801AA04200DD044676
:102EE000B4E0DFF878A100200546CAF8000088E0C9
:102EF000781E854201DA6B1C00E0002309EB850C8B
:102F000009EB8302BCF90200B2F90210A04244D1DD
:102F1000A14215D139F92330059A39F9251003EB6F
:102F2000020C4D4A05981268084404EB0B01526EDE
:102F30006045136801DA62462AE00246604627E0EF
:102F40002846A4464FF000087A1E0BE008B1401E48
:102F500000E0781E09EB8003B3F90230634504D129
:102F600008F101089045F1DB2346A34248D01A1B23
:102F700039F92500A1EB040C059B92EA0C0F09D44A
:102F8000354A184404EB0B011268526E136802466E
:102F9000984735E015F07EFF32E0A14230D001DBEA
:102FA000A04203DDA0422BDBA14229DCE04688429F
:102FB0000ADC0346A04223DC0846A14220DBB8F924
:102FC00000C0B2F9001008E00B46A14218DCA04294
:102FD00016DBB2F900C0B8F90010E21AA1EB0C013F
:102FE00051430029A0EB030202DD01EB620102E084
:102FF000A1EB6201491CC01A91FBF0F06044C9E7E3
:103000006D1CBD42FFF674AF0598009004EB0B00F9
:10301000019000208046054613E01149B8F1000FE9
:1030200031F915A009D0009901EB0A0208440A49B8
:103030000968496E0B680199984788F00108504665
:103040006D1C064909688D42E7DB641CB4427FF7BA
:1030500048AF07B0BDE8F08FEC080220F40E022064
:10306000441E062010B5002005F054FA6FF07F4092
:1030700005F067FA012005F017FB002005F022FBA0
:10308000002005F02FFB002005F07EFA04480068C0
:1030900005F086FABDE81040002005F0D7BA000020
:1030A000E808022033B583B004001BD004F020F8F8
:1030B000204602F04FFB0190456E01A802F0B4FBE0
:1030C000049802F047FB00908460684602F0ACFB75
:1030D000042204A9284602F0CBFB204614F024FB6E
:1030E00005F0A6FE05B030BD33B583B004001BD09B
:1030F00003F0FEFF204602F02DFB0190856E01A833
:1031000002F092FB049802F025FB00908460684670
:1031100002F08AFB042204A9284602F0A9FB2046FB
:1031200014F002FB05F084FE05B030BD2DE9F0413E
:1031300004460025D4E90007B0F5407F00D1012501
:103140002146384613F074FA064615B1384620F089
:103150007DFB002E2FD02068052806D00B280ED02E
:103160000F2806D0262821D10EE0384620F06EFB2D
:103170001CE03846E168BDE8F04121F0F8B9384676
:10318000BDE8F04120F0B1BEE06805280ED1384618
:1031900013F0B4FFA168884205D0384613F09EFFB3
:1031A000A168884202D1606822F058F82046BDE844
:1031B000F04113F01FBDBDE8F081F0B585B00DF111
:1031C000280C9CE8F0004FF0000C8DE8F01000F0A7
:1031D00003F805B0F0BD00002DE9F04F85B098462A
:1031E000DDE90E5691468A468346109F129C03F0F5
:1031F0007FFF18486C34CDE90204CDE90056434600
:103200004A465146584613F03DFC04001BD002F0DC
:103210006CFB054602F069FB0646204602F09AFA6E
:103220000490C0E919560022119913F055FB049837
:10323000302209493430FDF707FB0498A0F8787074
:1032400004A802F0F1FA05F0F3FD05B02046BDE850
:10325000F08F00002D310008C40B022013B582B09E
:10326000044603F045FF204602F074FA009060B176
:10327000406A02F06FFA01460190022303AA009807
:1032800000F0C8F901A802F0CFFA684602F0CCFAC3
:1032900005F0CEFD1FBD00002DE9F04385B01D46B1
:1032A00090460F46814603F023FF2C2002F055F98B
:1032B000060024D0780002F050F904000ED0B8F1D6
:1032C000000F0BD055B1204602F044FA6A00414687
:1032D0000090FDF732FA684602F0A6FA304602F096
:1032E00039FA0A49029000F10C02446282E8A20213
:1032F000074901600749416002A802F095FA05F00C
:1033000097FD05B03046BDE8F0830000F1310208BA
:10331000194702087B3F020810B5044603F0E8FE97
:10332000204620F02AFEBDE8104005F081BD2DE9C1
:10333000FC47894607002BD003F0DAFE384602F03E
:1033400009FA0190466E01A802F06EFA304602F0CA
:1033500024FB0546002414E02146304602F029FBF8
:1033600070B102F0F7F90090D0F80080684602F0E2
:103370005BFAC84504D12146304602F0E1FA02E08A
:10338000641CAC42E8DB384614F0CEF905F050FD81
:10339000BDE8FC872DE9FC47894607002BD003F0E8
:1033A000A7FE384602F0D6F90190866E01A802F019
:1033B0003BFA304602F0F1FA0546002414E02146BB
:1033C000304602F0F6FA70B102F0C4F90090D0F87D
:1033D0000080684602F028FAC84504D121463046EC
:1033E00002F0AEFA02E0641CAC42E8DB384614F0AE
:1033F0009BF905F01DFDBDE8FC8700002DE9F843B1
:10340000984615460E46074603F072FE302002F03D
:10341000A4F8040015D002F09DF90090C0E90576EB
:1034200085840A4AB7EE000AC0F81C8080ED0A0ABB
:10343000D2E90012C0E9031205490160684602F0B2
:10344000F3F905F0F5FC2046BDE8F883F40B022003
:10345000F147020802F0A0B8F8B50D4606004FF09B
:10346000000411D003F044FE304602F073F90090DE
:10347000046AAC4203D00562806814F055F96846CE
:1034800002F0D2F905F0D4FC2046F8BDF8B50D469F
:1034900006004FF0000411D003F02AFE304602F07F
:1034A00059F900904469AC4203D04561806814F03A
:1034B0003BF9684602F0B8F905F0BAFC2046F8BDC1
:1034C0002DE9F8431D46DDF8208016460F4604001E
:1034D00015D003F00DFE204602F03CF90090C0F834
:1034E00060804765C0E91665684602F09DF9204690
:1034F00020F0ACF9204614F017F905F099FCBDE86E
:10350000F883F8B515460E4607004FF0000415D0B5
:1035100003F0EEFD384602F01DF90090042D08D2AC
:1035200000EB8500446BB44203D04663384614F088
:10353000FBF8684602F078F905F07AFC2046F8BD01
:10354000F8B50D4606004FF0000411D003F0D0FD91
:10355000304602F0FFF80090446CAC4203D0456462
:10356000304614F0E1F8684602F05EF905F060FCC0
:103570002046F8BDF8B50D4606004FF0000411D006
:1035800003F0B6FD304602F0E5F80090846CAC42E2
:1035900003D08564304614F0C7F8684602F044F959
:1035A00005F046FC2046F8BDF8B50D4606004FF084
:1035B000000411D003F09CFD304602F0CBF80090DF
:1035C000046DAC4203D00565304600F055F86846FE
:1035D00002F02AF905F02CFC2046F8BDF8B50D469E
:1035E00006004FF0000413D003F082FD304602F0D5
:1035F000B1F8009090F86C40AC4204D080F86C5068
:10360000304614F091F8684602F00EF905F010FC0F
:103610002046F8BD2DE9F041044680681D46174656
:103620000E46002826D0D4E9040290420ED1521E44
:103630006A4371193046FDF7C5F820692A46401ED5
:1036400005FB00603946FDF7BDF80EE005FB0013F1
:10365000401C20612A4639461846FDF7B3F8E16858
:1036600019B12046BDE8F0410847A068BDE8F04127
:1036700000F002B8BDE8F08110B58AB0044602F04F
:1036800069F809A904AACDE9002105AB089006AAAA
:1036900007A91EF027FC08A802F0C6F802A92046D8
:1036A00013F082FCBDF8080007990844ADF8080043
:1036B000BDF80A0006990844ADF80A00BDF80C00F0
:1036C0000599401AADF80C00BDF80E000499401A97
:1036D000ADF80E0002A9204613F0E6FF0AB010BDB7
:1036E0002DE9F04389B04048016841F08001016054
:1036F000016801F080010191016841F4807101606D
:10370000006800F4807001904FF40058CDF80880F4
:10371000002403940127049703250595DFF8CC9036
:1037200002A9484606F0A8FD3E020296039702A9A8
:103730002F4F384606F0A0FDFDF7E8FE0022314687
:10374000384606F094FE0A2026F0A6F901223146FA
:10375000384606F08CFE0A2026F09EF9CDF8088047
:1037600003940494059502A9484606F085FD64205B
:1037700026F092F9042248F2401007A900F04EF812
:103780008DF8204007A91BA0FCF71CFE1CA107A870
:10379000FDF7DEF818B1012009B0BDE8F083022082
:1037A0008DF81C0048F240050122284607A900F0C8
:1037B0003FF90122E81D07A900F030F89DF81C1020
:1037C000602905D210A0FCF7FDFD012000F008F9EA
:1037D0000A2026F061F98DF81C40012207A928462D
:1037E00000F026F90020D7E730380240000C0240F4
:1037F000002002404354502049443A25730D0A00EA
:10380000393135370000000044656661756C7420FD
:103810005665723A25640D0A000000002DE9F0415A
:1038200004460D461646FDF729FF2820FDF7EEFE5B
:10383000FDF76EFF200AFDF7E9FEFDF769FFE0B234
:10384000FDF7E4FEFDF764FFFDF718FF2920FDF703
:10385000DDFEFDF75DFF0024771E09E0BC4201D0CC
:10386000012000E00020FDF79DFE2855641CE4B215
:10387000B442F3D3BDE8F041FDF728BF2DE9F1478D
:1038800083B00024A14651484FF4005106F0E4FDF6
:10389000002548F24E16002866D00122304603A9C2
:1038A000FFF7BCFF9DF80C00010609D500F00F00E2
:1038B000062805D20195012201A9304600F0B8F88A
:1038C0009DF80C00424E434F010761D000F00F01FC
:1038D00006295DD2FF208840019096F82080C043E1
:1038E00040F0C00086F82000B089B082F08AF083F2
:1038F0004FF00109DFF8E0A096F8200009FA04F182
:10390000084215D03AF81400042202A9FFF786FFF6
:103910009DF809109DF8080000EB012106EB44001A
:1039200081819DF80B209DF80A1001EB0221C182D4
:10393000641CE4B2052CDFD34FF001092748B2899B
:10394000314603889A4203D8CA8A408882421ED9E7
:103950009DF80C0000F00F0001280FD9C88988815C
:10396000088BC8823D7013E00195012201A9304601
:1039700000F05EF8002004B0BDE8F087888A8881F6
:10398000C88BC8828020039081F8208000E03D70C1
:103990009DF80C0000F08F00802810D196F82000D0
:1039A000010604D520F0800086F8200007E04FF6DD
:1039B000FF71B181F18200F0E00086F820003878D4
:1039C000F02801D9052038704846D4E7000C0240A1
:1039D0002C00022060000220F2E70208BCBF022097
:1039E00008B5002100228DF800208DF801000F4855
:1039F0009DF80020435C1A448DF80020491CC9B290
:103A0000BA29F5D39DF80000C043401C8DF8000092
:103A10000649BA2248F2470000F00AF80222694635
:103A200048F2FF0000F004F8002008BD38E7020863
:103A30002DE9F04104460E4615460027FDF71EFE0F
:103A40002820FDF7E3FDFDF763FE200AFDF7DEFD0C
:103A5000FDF75EFEE0B2FDF7D9FDFDF759FE00244B
:103A600009E0305DFDF7D2FDFDF752FE0746380054
:103A700003D1641CE4B2AC42F3D3FDF727FE384611
:103A8000BDE8F081014AC2E90001704798080220B0
:103A9000014AC2E900017047A0080220014AC2E9B8
:103AA00000017047080A0220014AC2E9000170477C
:103AB000A8080220014AC2E900017047100A02204A
:103AC00030B5002300E05B1CC25C002AFBD101245E
:103AD000012203E004EB84046400521CB1FBF4F502
:103AE0000A2DF7D20025C418A5540A200AE0B1FB1C
:103AF000F0F300FB13133033A51805F8013CB1FBBC
:103B0000F0F1521E002AF2D130BD10B50022002380
:103B100000E0521C845C002CFBD102E08454521C57
:103B20005B1CCC5C002CF9D10021815410BD00003D
:103B300010B50BA117A000F013FE012000F0DEFA73
:103B4000012003F05DF804461BF078FA4FF47A6028
:103B500000F0FAFF2046BDE8104003F051B8000025
:103B60004F757470757420616E7469616C696173EE
:103B7000656420746578740A6F6E20646966666592
:103B800072656E74206261636B67726F756E6473C9
:103B90002E000000416E7469616C69617365642078
:103BA00054657874000000002DE9F041002626A13C
:103BB0002FA000F0D5FD09F0A3FE074609F0ACFEEA
:103BC0000446304D0321A4F1C40090FBF1F1E960FB
:103BD000A7F1C8002C4A074613885B1DB3EB600FA2
:103BE00003DB5088401D884200DA012627A003F03D
:103BF00002FAB0EB670F4FF0010805DBE868283CDC
:103C00006230B4EB400F01DDC5F80080234804F0BA
:103C1000C7FC044603F0AAF9E968401C884201DAAF
:103C2000C5F80480204604F0BBFC304619F02AFE9B
:103C300001F03AFB032001F031FC15F0A1FBBDE8D7
:103C4000F04101F029BB00004578616D706C65732F
:103C500020666F72207468650A6175746F6D6F7489
:103C600069766520696E6475737472696500000019
:103C70004175746F6D6F746976652073616D706CDA
:103C800065730000D00102201C700A086D73656323
:103C90002F706963747572653A0A00009C82090886
:103CA00010B507A10BA000F05BFD012000F026FA83
:103CB00001F0CEFF16F076FEBDE8104002F0B0B87D
:103CC000416E696D61746564206261722067726122
:103CD00070680000426172204772617068000000E5
:103CE00010B508A115A000F03BFD00F033FD002049
:103CF00000F004FA15F02EFCBDE810404FF47A6095
:103D000000F022BF53686F77696E670A6469666660
:103D10006572656E74206269746D61707320776975
:103D200074680A616E6420776974686F75742063C3
:103D30006F6D7072657373696F6E00004269746DA8
:103D40006170730010B5084C02E00A2002F066FAB8
:103D5000606A0128F9D0A06A012801D0002010BDB6
:103D60000020A062012010BD7C0102202DE9F04F4F
:103D700097B0502103A8FCF7C3FD09F0C1FD8246AE
:103D800009F0CAFD0546864986A000F0E9FC01203D
:103D900000F0B4F96FF07F47384604F0D2FB844856
:103DA00004F0FEFB0C224FEA6A0182A002F066FBDF
:103DB000834804F0F5FB2B22012182A002F04AFB8C
:103DC0003F22012180A002F045FB5322012180A067
:103DD00002F040FB622201217FA002F03BFB712236
:103DE00001217FA002F036FB852201217EA002F096
:103DF00031FB992201217EA002F02CFB7E4804F0C9
:103E0000CFFB09F0B7FC014603A8FFF759FE7BA1E1
:103E100003A8FFF77AFE092009F0C8FC04465CB14C
:103E200078A103A8FFF771FE03A82146FFF748FE1B
:103E300075A103A8FFF769FE0C21A5F1190203A8DB
:103E400002F008FB00F06AF9064641F270794FF47F
:103E5000FA7897E000F062F9801B4FF4FA6190FB6A
:103E6000F1F201FB1200491090FBF1F16FF07C02BE
:103E70004A4300EBC20040457DDCC0EB002090FBD4
:103E8000F8F0C1EB0121484000EB002101EB0044B8
:103E90003D1B4FF0FF0B342352462B213C20CDE934
:103EA00000B402F0DBFC3E23524635213C20CDE934
:103EB00000B502F0D3FC4FF47F4B524648233F211C
:103EC0003C20CDE900B402F0C9FC522352464921FE
:103ED0003C20CDE900B502F0C1FC4FF47F0B524607
:103EE0005C2353213C20CDE900B402F0B7FC6623EB
:103EF00052465D213C20CDE900B502F0AFFC4448BC
:103F00007023CDE90004672152463C2002F0A6FC54
:103F10004FF6FF7B52467A2371213C20CDE900B554
:103F200002F09CFC842352467B213C20CDE900B466
:103F300002F094FC4FEA0B2B52468E2385213C2045
:103F4000CDE900B502F08AFC982352468F213C202F
:103F5000CDE900B402F082FC4FF0FF1B5246A223D1
:103F600099213C20CDE900B502F078FCAC23524603
:103F7000A3213C2000E005E0CDE900B402F06EFC96
:103F800002F07EFE00F0CAF8801B484504DAFFF715
:103F9000D9FE00283FF45EAF17B0BDE8F08F0000F7
:103FA000CC430C08436F6C6F72206261720000009A
:103FB0009C820908436F6C6F72206261727300000B
:103FC0001C0D0C0852656400477265656E000000A8
:103FD000426C7565000000004772657900000000C2
:103FE00059656C6C6F7700004379616E00000000CA
:103FF0004D6167656E746100BCEA0B0820627070E9
:10400000000000002C20000020636F6C6F727300B2
:1040100080808000034901600F21416005210181FA
:10402000704700000C02022010B50DA115A000F091
:1040300097FB012000F062F801F00AFE16F048FF3D
:104040004FF47A6000F080FD01F0EAFE002108469E
:1040500001F0A2FEBDE810400C4801F02DBE0000AA
:104060005354656D57696E20737570706F727473F9
:104070000A736F66747761726520637572736F720D
:1040800000000000437572736F720000A4D40B0827
:104090002DE9F041044618484FF40471806812F08D
:1040A0001FFF0746642C01DD23F040FD0021384648
:1040B0000FF0EFFB0021224638460FF0B7FB02F06D
:1040C000A4FF064600F02AF8851B642C03DD294670
:1040D00038460FF0DEFB052002F0A0F8FFF732FEB5
:1040E000A54201D20028EDD0642C01DD1EF0BEFBFC
:1040F000BDE8F04102F0C4BD7C010220014909691C
:10410000084700007C01022003490989014201D0CF
:104110000120704700207047B81A062010B5054CE2
:10412000606A002801D0206A10BD02F06EFFE169CC
:10413000401A10BD7C01022010B506A112A000F0AB
:104140000FFB00F007FB1EF01FFABDE8104000F067
:10415000ADBA00004F7074696D697A65642064724D
:104160006177696E6720726F7574696E650A666F34
:10417000722064726177696E67206772617068206F
:10418000646174610000000044726177696E6720A9
:10419000612067726170680010B50548C06813F04F
:1041A000FFF912F087FEBDE8104013F029BF0000B0
:1041B0007C0102202DE9F04F8FB065A16FA000F0C7
:1041C000CFFAFFF7E9FF12F075FE12F0D5FD12F0FD
:1041D00071FE6E4913F03DFD074612F06BFE00259F
:1041E00002246BA18DE831004FF4B0722846CDE96E
:1041F00003211E2329464FF4A07210F062FC814671
:104200006949484610F0ECFC0E21484610F029FDA3
:104210006649484610F03AFD12F04CFE64A140F2A7
:1042200061128DE83100CDE9032164238C2228211D
:10423000A02010F046FC82465E4A5F4806A903F0C3
:1042400033FF06A9504610F0CBFC6FF07F4150467B
:1042500010F01CFD0121504610F02FFD0E2150469C
:1042600010F0FFFC09F058FB054612F023FE3C213C
:1042700037224FF41473CDE904210321CDE9024321
:104280008822CDE900011E210A20A5F1280308F0AB
:10429000DFFA80460024494D04EB440005EB800121
:1042A0004A6855F82010404608F004FA641C092CAE
:1042B000F2D3434A0121404608F040FB41494046C1
:1042C00008F058FB404613F061FD01260024FFF77B
:1042D00025FF42F2283100EB010BFFF71FFF00F52D
:1042E0007A75322001F09AFF12F0E4FD4FF48061FC
:1042F00013F08FFCFFF712FFA8420EDB05F57A756D
:1043000014B1082C02D003E0012601E04FF0FF3683
:1043100034444046214608F044FBFFF7FFFE584571
:1043200003DAFFF70FFD0028DBD0484612F09AFCB5
:10433000504612F097FC404612F094FC12F0BAFD81
:10434000394613F086FC00F0B1F90FB0BDE8F08FEC
:1043500044656D6F6E737472617465732074686503
:1043600020757365206F660A7468652049434F4E57
:1043700056494557207769646765740049636F6ED5
:1043800020566965772044656D6F00001D9802080E
:104390005354656D57696E2049434F4E56494557F2
:1043A0002073616D706C65009C8209084040FF00BD
:1043B00000000000A0D60B0860F40508D4D606085B
:1043C0000000FFC07C020C082DE9F04188B02022DB
:1043D00039496846FCF738FA09F092FA054609F0BF
:1043E0009BFA04466E100020FFF788FE022004F0BE
:1043F00079F96FF07F47384604F0A3F82F4804F0AE
:10440000CFF844F3191231462DA002F037F82E48A8
:1044100004F0C6F804EB4400314600EBC4008211FE
:104420002AA002F02BF8374804F08BF8162104FB81
:1044300001F031468046821133A002F01FF83E4859
:1044400004F0AEF81220314600EBA8123BA002F0B7
:1044500015F8384604F075F81B4804F0A1F802F08E
:10446000D7FD01466846FCF75CF9C4EB44103146C1
:104470008211684602F002F8262060438211374814
:104480000088281A4110364802F0CCF8384604F06B
:1044900058F80A4804F084F8C4EBC400314640F3ED
:1044A000D90230A001F0EAFF41F28830FFF7F0FDB9
:1044B00008B0BDE8F0810000400708089C820908A8
:1044C0005354656D57696E001C0D0C08556E697666
:1044D000657273616C206772617068696320736FC5
:1044E0006674776172650A666F7220656D626564D5
:1044F000646564206170706C69636174696F6E7368
:1045000000000000FF882200466F722053544D3394
:1045100032204D43552050726F6475637473202DA3
:1045200020436F72746578204D33202D20436F72C5
:10453000746578204D340000A4F10B08436F6D7052
:10454000696C65642041756720323820323031391A
:104550002031333A34313A33350000008CB0090849
:10456000C0490A087777772E73742E636F6D2F73A7
:10457000746D33320000000010B506A110A000F0E9
:10458000EFF80120FFF7BAFD00F0E4F8BDE81040B5
:1045900016F0B2BA53686F777320736F6D6520663B
:1045A00065617475726573206F660A746865204C66
:1045B0004953545645572077696467657400000075
:1045C0004C697374766965772064656D6F000000CF
:1045D0008CB02949294803F0B3F912F06BFC284943
:1045E00013F037FBFCF714FE002101A8FDF7A6FF2E
:1045F00000240694002101A8FDF7E8FF012101A88D
:10460000FDF79CFF0694012101A8FDF7DFFF1D487F
:10461000FDF7C0FF1C480FF0E7F81C48FCF7D8FD79
:104620001B480FF087FC1B4810F042F91A4807F0AE
:10463000A5FF022004F056F81848FFF7EBFC09F03C
:1046400099F80D4C2C3C10280EDB0420FFF75CFD84
:1046500050B101F05FF8B0F5001F02DD1048206195
:1046600004E01048206101E00F482061012000F0C3
:1046700045F81EF089FFFCE7A80102200D9502080D
:10468000159202082303020865370108990F0008F4
:10469000753D01082147010875C40008B81A0620B5
:1046A00031D9010841D8010865DA010810B505487B
:1046B0008169491C816115F05BFBBDE8104000F089
:1046C000D3B900007C01022010B5FFF765FD074952
:1046D00007A000F045F8012013F0AEF821F04EFDE0
:1046E000BDE81040002013F0A7B80000344E0C08BD
:1046F00052616469616C204D656E7500002801D0BF
:10470000012000E000200149087070477C01022070
:1047100010B50448806813F05BFCBDE8104002F05F
:10472000AFBA00007C01022070B50546084CE06875
:1047300013F063F8002809D0E0684FF4B07112F06C
:10474000CFFB2946BDE8704010F061BA70BD000093
:104750007C0102200148C06813F03ABC7C010220B1
:104760002DE9F04107460C4609F0CAF8054609F064
:10477000D3F86D104610FFF70FFDFFF7C9FF02F0E9
:104780007FFA0120FFF7BAFC6FF07F4003F0D9FEFB
:10479000022003F0A7FF104803F002FF3C22294645
:1047A000384601F06BFE0D4803F0FAFE02F0DEFB26
:1047B000321A29460A32204601F060FE002200E04B
:1047C000521CA35C002BFBD102EB82000001BDE870
:1047D000F04100F0B9B900009C8209081C0D0C08DA
:1047E0002DE9F04F97B028216846FCF789F809F0C9
:1047F00087F8054609F090F8044609F075F8064672
:1048000001F026FAA6420BDD0020ADF82800ADF835
:104810002A00ADF82C50ADF82E400AA803F085FE12
:1048200056A162A0FFF79CFF0026634F0DF13809E7
:1048300057F8260001F084FB49F82600761C082E64
:10484000F6DBFFF76BFC1690002658E006F0070039
:1048500059F8200003F080FEFBF74AFD90FBF5F1CC
:1048600005FB110005EBD571A0EB610000B2ADF8BE
:1048700030008346FBF73CFD90FBF4F104FB110094
:1048800004EBD471A0EB610007B2ADF83270FBF716
:104890002FFD90FBF5F105FB1100143058440FFA81
:1048A00080F8ADF83480FBF723FD90FBF4F104FBB6
:1048B0001100143038440FFA80FAADF836A0534690
:1048C00042463946584602F0FDF9A84502DB681E0B
:1048D000ADF83400A24502DB601EADF83600BBF136
:1048E000000F02DA0020ADF83000BDF936000028D4
:1048F00002DA0020ADF8360002F0C2F9761CFFF7AC
:104900000DFC1699411A41F28830814203DAFFF713
:1049100019FA00289AD0FFF7C9FE1DF03DFB0646A4
:10492000002003F002FE0020FFF7E8FB6FF07F405D
:1049300003F007FE022003F0D5FE204803F030FE0E
:1049400005221F48114601F06DFE1EA16846FFF7C3
:10495000DCF831466846FFF7B3F802F015FB201A81
:1049600069104210684601F089FD4FF47A60FFF744
:104970008FFB01F055FA17B0BDE8F08F4D756C74E0
:1049800069206C6179657220636C697070696E670B
:104990000A486967686C79206F7074696D697A6517
:1049A0006420647269766572730000004869676804
:1049B000207370656564000030700A089C820908E5
:1049C0001C700A08506978656C732F7365633A2010
:1049D0000000000010B505A10FA0FFF7C1FEFFF712
:1049E000DBFBBDE8104023F0A1BB000055736573ED
:1049F00020616C70686120626C656E64696E670A24
:104A0000666F72207472616E73706172656E637925
:104A100020656666656374005472616E73706172BE
:104A2000656E74206469616C6F67000010B5094998
:104A300009A0FFF795FEFFF78DFE0020FFF75EFB54
:104A400001F006F916F090F801F0EAF9BDE810401F
:104A5000FFF72CBE3C4F0C0854726565766965778C
:104A60002064656D6F00000030B585B01421684684
:104A7000FBF746FF134C4FF4B071A06812F030FA08
:104A80000546684610A1FFF740F861696846491C71
:104A9000FFF716F80EA16846FFF737F8A1696846D8
:104AA000FFF70EF80BA16846FFF72FF80A48416898
:104AB0006846491EFFF704F86946284610F0A7F833
:104AC00005B030BD7C01022044656D6F2000000000
:104AD0002E0000002F000000B81A062010B508F0C4
:104AE0001BFF044608F000FFB0EB440F0EDB08A1EB
:104AF00011A0FFF735FE0120FFF700FB16F0A2F82A
:104B00000021BDE81040084603F0AEBD10BD000016
:104B100044656D6F6E7374726174657320686F772E
:104B200020746F207573650A7669727475616C20E4
:104B300073637265656E73005653637265656E20AC
:104B400064656D6F0000000010B5FFF7A1FABDE8C5
:104B50001040FFF7ABBD00002DE9F04FDFF828B1A2
:104B600091B04FF0FF35DBF80030B3F92210069119
:104B7000DE69B3F92490F469A189814206D8E289FB
:104B8000824203D3471AD4F8008012E0D4E90181AD
:104B900000296FD00A8882426CD84D88854269D33B
:104BA000801A82B2486800EB8200B0F90070B0F958
:104BB0000250781C5ED0307EA17C10FB01FA217C73
:104BC000CDE90701B3F92A60304609F093FBC0B282
:104BD0000E90DBF8000007FB0A81A37C826B0127A3
:104BE000CDE90412CDE90273C069089AC17E807EC6
:104BF000CDE90001DDE90603494608F02BFA681CFF
:104C000018D046F0020009F075FBDBF80000A37C29
:104C100005FB0A81826BCDE90273CDE90412C069FC
:104C2000089AC17E807ECDE90001DDE90603494690
:104C300008F010FADBF800005D46C069417E007E96
:104C4000814214D9022E12D086F0040009F052FBE2
:104C50002868C069027EC37E12FB0391437E857E75
:104C6000089A06984B4412FB050208F057FD0E986F
:104C700009F040FBDBF80000627C418C1144418468
:104C800011B0BDE8F08F0000EC0802200448006875
:104C9000C069C06909B1027C0A60407C70470000AD
:104CA000EC080220022008807047C06982898A428D
:104CB00002D8C2898A4210D2806880B102888A42B2
:104CC0000DD843888B420AD3406800EB8100A0EBEB
:104CD0008200B0F90000002801DB012070470020AD
:104CE00070470000F0B52C4D044687B02868214677
:104CF000B0F92A60C069C06900F03CFA002848D0C9
:104D000041680088201A00EB400001EB8004207805
:104D1000C01C8708304609F0EDFA06461F48D0F857
:104D200000C0BCF1000F1AD00021A068CDE9040139
:104D30000222012001A9009081E88500286894F9E9
:104D40000320DCF80070B0F92410B0F922001144FF
:104D500094F90220637810442278B84711E0A068E3
:104D6000CDE90070286894F903206378B0F9241025
:104D7000B0F92200114494F902201044227800F086
:104D800095FB304609F0B6FA28682279418C114427
:104D9000418407B0F0BD0000EC0802202809022081
:104DA000F0B5254C054687B020682946B0F92A6041
:104DB000C069C06900F017FA00283AD0416800883D
:104DC000281A01EBC0053046AF7809F093FA064681
:104DD0001A48D0F800C0BCF1000F15D00021686857
:104DE000CDE904010422012001A9009081E8850099
:104DF0002068DCF800702A78C1690B7EB0F92410B5
:104E0000B0F92200B8470CE06868CDE9007020686E
:104E10002A78C1690B7EB0F92410B0F9220000F0A5
:104E200057FB304609F066FA20686A78418C1144D5
:104E3000418407B0F0BD0000EC08022028090220E0
:104E4000F0B52C4D044687B028682146B0F92A6099
:104E5000C069C06900F08EF9002848D04168008818
:104E6000201A00EB400001EB80042078401C47082A
:104E7000304609F03FFA06461F48D0F800C0BCF1A2
:104E8000000F1AD00021A068CDE9040104220120FE
:104E900001A9009081E88500286894F90320DCF8D6
:104EA0000070B0F92410B0F92200114494F90220E6
:104EB000637810442278B84711E0A068CDE900700B
:104EC000286894F903206378B0F92410B0F922001F
:104ED000114494F902201044227800F0F9FA304687
:104EE00009F008FA28682279418C1144418407B0FE
:104EF000F0BD0000EC0802202809022070B505462C
:104F00000B480C4629460068C069C06900F06BF97F
:104F100000280BD0416800882A1A012000EBC2004B
:104F2000002C085C02D011F83210216070BD000026
:104F3000EC08022011200880704710B5C06900F00D
:104F400052F9002800D0012010BD00002DE9F043E7
:104F5000304C034687B020681946B0F92A60C06912
:104F6000C06900F040F9002850D041680088181A44
:104F700001EBC0053046AF7809F0BCF981462068E6
:104F80006A680123816BCDE90237CDE90421C1694B
:104F9000CB7E8A7ECDE900230B7EB0F924102A78DF
:104FA000B0F9220008F056F82068C069417E027E00
:104FB00091421FD9C07E11FB00F812FB00F7022EB0
:104FC00018D001F0B0FF064601F076FF03F0B9FA01
:104FD00021682A78CB69B1F92200DB7E12FB03023B
:104FE000B1F9241001EB0803394408F097FB30466F
:104FF00003F0A7FA484609F07DF920686A78C3698A
:10500000B0F922109B7E12FB0311418407B0BDE86A
:10501000F0830000EC08022030B5104C05460B462A
:1050200020682946C069C06900F0A4F8002814D09F
:10503000416800882468281A00EB40020420E469D3
:1050400000EB8200085CA47E10FB04F0002B04D06F
:1050500011F8221011FB04F1196030BDEC08022098
:1050600003460C4810B500680C461946C069C06973
:1050700000F080F858B141680088181A00EB400031
:1050800001EB800007C884E80700002010BD012064
:1050900010BD0000EC08022001200880704700B518
:1050A000C06900F067F8002800D0012000BD0000B2
:1050B0002DE9F3411C4E0F46002530682C46C0698F
:1050C000417EC07E11FB00F81DE0684603F088FDBC
:1050D000054630682946C069C06900F04BF890B1B8
:1050E00041680088281A00EB400001EB800090F92D
:1050F0000210007908443168C969897E10FB01F00B
:10510000002800DD04447F1EDFD51DB1284604F0D1
:105110005BFD04444146204614F032FE0349012061
:105120000870BDE8FC810000EC0802207409022030
:105130002DE9F3410D4D0E4F0E462868B0F92A4077
:10514000A0070AD17A680098904706E0684603F005
:1051500047FD2968C96909688847761EF6D5002089
:10516000387028684485BDE8FC810000EC08022006
:105170007409022006E002888A4202D842888A42E4
:1051800002D280680028F6D17047000030B50F4C7D
:1051900005460B4620682946C069C06900F023F81F
:1051A000002812D04168008824682A1A0120E46986
:1051B00000EBC200085CA47E10FB04F0002B04D0BE
:1051C00011F8321011FB04F1196030BDEC08022017
:1051D00001200880704700B5C06900F004F800287D
:1051E00000D0012000BD06E002888A4202D8428831
:1051F0008A4202D280680028F6D1704770B5002537
:10520000124C19E020691249C5EB051600EBC600E7
:1052100070220968001DFBF717FB2069002140F888
:10522000361000EBC60000F10C018161011D0A1D62
:10523000C0E90F126D1C4164A0688542E2DB01F0F9
:1052400057FFBDE8704003F0F3BD0000080F0220D7
:10525000EC08022070B50F490D480860084604F0BC
:1052600023FE0C4C143CA068C0EB0010C50028467F
:1052700000F0D8F92A460021206104F000FF4FF029
:10528000FF30206003F03AFEBDE870401DF000B82A
:10529000F14002081C0F022002490020096881F831
:1052A00069007047EC08022002490120096881F872
:1052B00069007047EC08022010B51BF00BFD044894
:1052C000016A04480068416600F10801416110BDAF
:1052D0005C080220EC0802207CB514460D46064608
:1052E00001F006FF12F0CAFF064412F0D5FF054494
:1052F0001648006890F8691021B990F868104E437C
:105300004D434C43301B00F05DF8ADF80000301900
:1053100000F058F8ADF80400281B00F053F8ADF881
:105320000200281900F04EF8ADF80600684613F0A8
:105330000BF806E0224629463046FDF793FD12F0B1
:105340007DFF0028F6D103F073FD7CBDEC08022040
:105350002DE9FC471C4615468846814601F0C8FEEB
:1053600012F08CFF054412F097FF0444002012F065
:10537000EBFFF8B1114E124F12213068407C57F804
:1053800020000190C068426A01A890475FEA000CC3
:1053900006D02B464246494600940198E04705E076
:1053A00023462A46414648461BF040F812F046FF85
:1053B0000028E1D103F03CFDBDE8FC87EC080220A9
:1053C000040902200449096891F8681009B190FBAA
:1053D000F1F000B270470000EC0802202DE9F04126
:1053E000224C05460E462068002788B920480068F0
:1053F000E06110B908F074FAE06100F013F9206080
:1054000080B31A491B4824310860084604F04CFD5B
:1054100019480068854200DA0546E169731B4A1E97
:105420002046934201DD6E18761EAE4201DA2E460A
:105430000127124C2268516E4B68836301620B494D
:105440000F4B34310B60516602C880E8620014F0E3
:105450007BFC14F035F9054821682C30486138464A
:10546000BDE8F081FFE70127D2E700005C080220D9
:105470001C090220A13F020820090220EC0802209A
:1054800075E70108044A126892F8682090FBF2F070
:1054900091FBF2F1FFF7A2BFEC0802200249096874
:1054A00081F8680014F00CB9EC0802207CB5074EB6
:1054B000DDE906543668367CCDE90054B60702D4DF
:1054C00018F088FB7CBD18F0D7FB7CBDEC080220EF
:1054D0007CB5084EDDE906543668367CCDE90054CB
:1054E000B60702D418F02AFC7CBD034C2468A04700
:1054F0007CBD0000EC0802202C080220F8B50C004E
:1055000005460FD001F0F4FD204600F017F8060024
:1055100010D000F01FF9224600902DB12946FBF76C
:105520000CF904E00020F8BD002104F0A8FD684655
:1055300000F07AF903F07CFC3046F8BD10B50400A9
:1055400009D001F0D5FD204613F0BEFE044603F05D
:105550006FFC204610BD002010BD38B5054601F097
:10556000C7FD2846FFF7EAFF040009D000F0F2F873
:105570002A460021009004F082FD684600F054F9AC
:1055800003F056FC204638BD024A106021F00300AB
:1055900050607047781C062010B5040016D001F04A
:1055A000A7FD0B48406B10F8341059B1022909D2FD
:1055B000042101EBC4014158486813F0CFFC204698
:1055C00020F0C8FDBDE8104003F032BC10BD000063
:1055D000B81B0620002805D0034AD16B016001B139
:1055E0004860D06370470000B81B062010B5044621
:1055F00001F07EFD2068FFF7CFFF00202060BDE8AE
:10560000104003F015BC000070B50D46064600249E
:1056100005E000BF06EB8400FFF7E8FF641CAC4226
:10562000F8DB70BD2DE9F04104461DF0EFFB284882
:10563000E41C24F00305016C2D1DA94200D90D4680
:10564000C46B13E054F8042CAA420ED184B1216833
:1056500009B162684A60616809B122680A60C26B78
:10566000A24231D12168C1632EE02468002CE9D127
:105670008046816BC0680F1857F8040C3E1A3068DA
:1056800038B1002020F014FF57F8040C3E1A30689F
:10569000D0B97068A84217DB3044441B3046241D43
:1056A00020F0BEFED8F80C10491BC8F80C10D8F832
:1056B00014102944C8F814107068401B02D03146F9
:1056C00013F04CFC44F8045C2046BDE8F081000077
:1056D000B81B062010B500241DF098FB0C490F20C4
:1056E00001EBC002526C1AB101EBC000406C08E043
:1056F000401EF5D508E04168A14200D90C468068FB
:1057000010B180680028F6D1A4F10C0010BD000093
:10571000B81B0620034800680C38002800DC002075
:1057200070470000B81B0620002138B1044904224C
:1057300002EBC000496B085841680C3908467047B5
:10574000B81B062002488169491C8161704700002E
:10575000B81B06200549CA69521CCA61496B01EB96
:10576000C0010A78521C0A7000F076B8B81B0620F7
:105770007CB506460C460846FFF7E0FE050020D043
:10578000FEB13046FFF7D0FFA04200DA044601F038
:10579000AFFC2846FFF7DEFF00903046FFF7DAFF48
:1057A0000146019022460098FAF7C7FF684600F0CC
:1057B0003BF801A800F038F83046FFF7EDFE03F0A3
:1057C00037FB28467CBD000010B501F091FCFFF7C7
:1057D00081FF64220849B0F5800F04D990FBF2F4F0
:1057E000086A444303E0096A4143B1FBF2F403F061
:1057F0001FFB204610BD0000B81B062005491028DD
:1058000005D94A68B0EB520F02D3500800E01020CF
:1058100088607047781C062002488169491E8161B2
:1058200070470000B81B06200A4902684B6B52F80B
:10583000082C03EBC2021378022B03D3CB690BB104
:105840005B1ECB611178491E117000210160084672
:1058500070470000B81B0620002806D00349042228
:1058600002EBC000496B085808307047B81B06208F
:105870002DE9FC414FF000060B465FEA0008344674
:105880002BD032B111461846FFF738FE060000D182
:1058900001244046FFF75EFF009007884568684690
:1058A000FFF7C2FFCCB9B9002846091DFFF760FF1A
:1058B000050015D0FFF74EFF019040F8276001A8C2
:1058C000FFF7B2FF4046FFF745FF009045600188B3
:1058D000491C01806846FFF7A7FF2046BDE8FC8110
:1058E0003046FFF759FE0124F7E70820FFF735BEE1
:1058F0007CB5050023D0FFF72DFF00904068C0B1B4
:10590000FFF728FF0024019005E0019800EB8400D8
:10591000FFF76CFE641C00980088A042F5DC01A82B
:10592000FFF782FF0098001DFFF760FE009900203E
:1059300008806846FFF778FF2846FFF72DFE7CBDFC
:105940007CB50C46FFF706FF00900188A14220D9E4
:105950004568F5B101F0CCFB2846FFF7FBFE01904E
:1059600000EB8400FFF742FE00990888401E80B2D9
:105970000880401E019905E001EB8402526841F85D
:105980002420641C8442F7DD01A8FFF74DFF03F0DB
:105990004FFA6846FFF748FF7CBD38B5002430B1A8
:1059A000FFF7D8FE009004886846FFF73DFF2046C9
:1059B00038BD38B50D46002448B1FFF7CBFE294667
:1059C000009000F0B4F804466846FFF72DFF20462B
:1059D00038BD38B50D46002448B1FFF7BBFE294657
:1059E000009000F0B6F804466846FFF71DFF204619
:1059F00038BD2DE9FE430C465FEA00083DD0FFF7B5
:105A0000A9FE0090068847686846FFF70DFFB4427C
:105A100033D2B000001DFFF7A0FD05002DD0FFF729
:105A200099FE01903846FFF795FE01460290A200CC
:105A30000198FAF709FF301B8200029800EB8401FD
:105A4000019800EB8400001DFAF7FEFE01A8FFF7A5
:105A5000EBFE02A8FFF7E8FE3846FFF79DFD404643
:105A6000FFF778FE009045600188491C0180684678
:105A7000FFF7DAFE0120BDE8FE830020FBE72DE9F9
:105A8000F04115460E4607460024FFF7B2FF30B13D
:105A90002B4600223146384600F004F804462046E2
:105AA000BDE8F0812DE9FE43984691460D4600245D
:105AB000D0B3FFF74FFE01900788466801A8FFF7B3
:105AC000B3FEBD4230D27EB33046FFF743FE0090B6
:105AD00050F825406846FFF7A7FE24B12046FFF79F
